:020000040800F2
:10000000005000201D4D0008B9470008BB470008FC
:10001000BD470008BF470008C147000800000000B6
:10002000000000000000000000000000C3470008BE
:10003000C547000800000000C7470008C94700087E
:10004000654D0008654D0008654D0008654D0008C8
:10005000654D0008654D0008654D0008654D0008B8
:10006000654D0008654D0008654D0008D54700083E
:10007000654D0008654D0008654D0008654D000898
:10008000654D0008654D0008654D0008654D000888
:10009000E5470008654D0008654D0008654D0008FE
:1000A000654D0008654D0008654D0008654D000868
:1000B000654D0008654D0008F5470008654D0008CE
:1000C000654D0008654D0008654D0008654D000848
:1000D000654D0008654D0008654D0008654D000838
:1000E000654D0008654D0008654D000800000000E2
:1000F0000000000000000000000000000000000000
:0C01000000000000000000005FF808F1A3
:10010C0010B5054C237833B9044B13B10448AFF345
:10011C0000800123237010BD10010020000000009E
:10012C00B04D000808B5034B1BB103490348AFF3AE
:10013C00008008BD0000000014010020B04D000834
:10014C0010B504460E4B18784FF47A73B3FBF0F3EA
:10015C000C4A1068B0FBF3F000F0A2FB68B90F2C4E
:10016C0001D9012010BD002221464FF0FF3000F0D4
:10017C0059FB054B1C60002010BD012010BD00BFB9
:10018C0000000020880000200400002008B5074A69
:10019C00136843F010031360032000F031FB0020C0
:1001AC00FFF7CEFF04F0BAFA002008BD0020024091
:1001BC00034A1168034B1B780B441360704700BF54
:1001CC009401002000000020014B1868704700BF0C
:1001DC009401002038B50446FFF7F6FF0546B4F14C
:1001EC00FF3F02D0044B1B781C44FFF7EDFF401B74
:1001FC008442FAD838BD00BF0000002008B5436A1D
:10020C009A6A12F0500F1ED19A6A42F400729A62E6
:10021C001A68926802F46022B2F5602F03D0184677
:10022C0003F080FF08BDDA68002AF8D19A6A22F43C
:10023C0080729A629A6A12F4805FF0D19A6A42F0E4
:10024C0001029A62EBE71B6A1B6B984708BD08B565
:10025C00406A03F077FF08BD08B5406A836A43F033
:10026C0040038362C36A43F00403C36203F06BFF71
:10027C0008BD000030B482B00023019390F8243004
:10028C00012B00F08B800246012380F824304B6850
:10029C00062B29D80568686B03EB8303053B1F24E9
:1002AC009C4020EA04000C6804FA03F303436B63DC
:1002BC000B68092B38D91568E86803EB43031E3B20
:1002CC0007249C4020EA04008C6804FA03F30343DF
:1002DC00EB600B68103B012B34D90020002382F813
:1002EC00243002B030BC70470C2B0ED80568286B3C
:1002FC0003EB8303233B1F249C4020EA04000C687F
:10030C0004FA03F303432B63D2E70568E86A03EBB3
:10031C008303413B1F249C4020EA04000C6804FA30
:10032C0003F30343EB62C3E71568286903EB43034C
:10033C0007249C4020EA04008C6804FA03F303436E
:10034C002B61C6E713681648834205D0936A43F0C5
:10035C00200393620120C1E7986810F4000F1BD1B1
:10036C00986840F4000098600B68102B01D00020B6
:10037C00B4E70C4B1B680C49A1FB03139B0C03EB60
:10038C0083035900019102E0019B013B0193019B06
:10039C00002BF9D10020A1E700209FE70220A0E765
:1003AC00002401408800002083DE1B4330B583B05D
:1003BC000023019303689A6812F0010F2ED19A68FA
:1003CC0042F001029A60174B1B68174AA2FB0323E9
:1003DC009B0C019302E0019B013B0193019B002BC1
:1003EC00F9D10446FFF7F0FE054623689B6813F02D
:1003FC00010F11D1FFF7E8FE401B0228F5D9A36AC3
:10040C0043F01003A362E36A43F00103E3620023A9
:10041C0084F82430012002E0002000E0002003B02A
:10042C0030BD00BF8800002083DE1B4390F82430D1
:10043C00012B02D102231846704710B50446012344
:10044C0080F82430FFF7B2FF034600285BD1A26A84
:10045C0022F4407222F0010242F48072A2622268FD
:10046C002B498A4227D0A16A21F48011A1625168DC
:10047C0011F4806F05D0A16A21F4405141F48051F0
:10048C00A162A16A11F4805F2BD0E16A21F0060110
:10049C00E162002184F824106FF0020111602268DF
:1004AC00916801F46021B1F5602F1DD0916841F481
:1004BC00801191602AE0A1F58061496811F4702FD8
:1004CC00D1D0A16A41F48011A1621249496811F49A
:1004DC00806FD6D0A16A21F4405141F48051A162C1
:1004EC00CFE70021E162D4E709498A4204D0916840
:1004FC0041F4A001916009E0A1F58061496811F413
:10050C00702FD3D1F3E7002284F82420184610BDB5
:10051C000028014000240140F8B50468454DAC4268
:10052C000AD005F58065AC4206D090F82440012C29
:10053C0009D102252846F8BD3E4B5B6813F4702F99
:10054C00F3D00125F6E717460E460446012380F842
:10055C002430FFF72BFF0546002867D1A36A23F44C
:10056C00706323F0010343F48073A3622268324B5F
:10057C009A423DD0A36A23F48013A362536813F408
:10058C00806F05D0A36A23F4405343F48053A362D5
:10059C00A36A13F4805F41D0E36A23F00603E3629D
:1005AC00002384F82430236A244A9A62236A244A5A
:1005BC00DA62236A234A1A6323686FF002021A6014
:1005CC002268936843F48073936021683B463246FB
:1005DC004C31206A00F0E2F92268936803F460233E
:1005EC00B3F5602F1DD0936843F480139360A1E79B
:1005FC00A3F580635B6813F4702FBBD0A36A43F43C
:10060C008013A3620B4B5B6813F4806FC0D0A36A9A
:10061C0023F4405343F48053A362B9E70023E3620D
:10062C00BEE7936843F4A003936083E7002384F848
:10063C0024307FE700240140002801400902000813
:10064C005B0200086502000838B503689A6812F06E
:10065C00010F01D1002038BD04469A6822F0010236
:10066C009A60FFF7B1FD054623689B6813F0010FF4
:10067C000ED0FFF7A9FD401B0228F5D9A36A43F061
:10068C001003A362E36A43F00103E362012038BD67
:10069C00002038BD00287FD038B50446836A002B73
:1006AC004AD02046FFF7D0FFA36A13F010036DD198
:1006BC0000286BD1A26A22F4885222F0020242F086
:1006CC000202A2626268E1690A43E56842EA4502F5
:1006DC00A168B1F5807F38D0012933D06169012937
:1006EC0036D02568696821F469410B436B60216839
:1006FC008D682A4B2B4013438B60A368B3F5807F26
:10070C0037D0012B35D000232568E96A21F470011C
:10071C000B43EB6223689968214B0B409A422CD017
:10072C00A36A23F0120343F01003A362E36A43F0BD
:10073C000103E362012038BDC36280F8243003F06A
:10074C00F3F8AEE74FF48073C8E74FF48073C5E756
:10075C0035B9A169013943EA413343F40063C0E779
:10076C00A16A41F02001A162E16A41F00101E1625C
:10077C00B7E72369013B1B05C6E70023E362A36AC5
:10078C0023F0030343F00103A36238BDA36A43F0D3
:10079C001003A362012038BD01207047FDF7E1FF73
:1007AC00FE0E1FFF90F82430012B02D102231846B5
:1007BC00704710B50446012380F82430FFF744FF3E
:1007CC00034620B1002284F82420184610BD22686C
:1007DC00936823F480739360206A00F019F9034640
:1007EC0040B9A26A22F4885222F0010242F00102BE
:1007FC00A262E7E7A26A42F04002A262E2E70000CE
:10080C00074AD36823F4E0631B041B0C000200F4BA
:10081C00E060184340F0BF6040F40030D060704797
:10082C0000ED00E030B4164BDB68C3F30223C3F1D8
:10083C000704042C28BF04241D1D062D17D9033BC7
:10084C00012505FA04F4013C2140994005FA03F313
:10085C00013B1340194300280BDB0901C9B200F11D
:10086C00604000F5614080F8001330BC70470023F5
:10087C00E6E700F00F000901C9B2024B1954F4E786
:10088C0000ED00E014ED00E0420900F01F00012330
:10089C0003FA00F0014B43F82200704700E100E03E
:1008AC000138B0F1807F0AD2064B5860F021064A1D
:1008BC0082F823100020986007221A6070470120EC
:1008CC00704700BF10E000E000ED00E0042805D008
:1008DC00054A136823F0040313607047024A136837
:1008EC0043F004031360704710E000E0704708B554
:1008FC00FFF7FCFF08BD70B4C56B066C0124B44057
:10090C006C60046863604368102B05D003689960C1
:10091C000368DA6070BC704703689A600368D9603A
:10092C00F8E70000002830D010B403460068184ADD
:10093C0002441849A1FB0212120992001A64164AC9
:10094C00DA63022283F82120016821F47F5121F01F
:10095C0030015A689C682243DC6822431C6922439C
:10096C005C6922439C692243DC6922430A4302608E
:10097C0000209862D862186358639863012283F848
:10098C00212083F8200010BC70470120704700BF65
:10099C00F8FFFDBFCDCCCCCC0000024038B590F8B0
:1009AC002040012C32D0012480F8204090F82140C6
:1009BC00012C04D0002380F82030022038BD0446DE
:1009CC00022084F821000020A0632568286820F00C
:1009DC00010028602046FFF78EFFE36A5BB12268B6
:1009EC00136843F00E0313602268136843F001038D
:1009FC001360002038BD2268136823F004031360D1
:100A0C002268136843F00A031360EDE7022038BD37
:100A1C00034601680A6822F00E020A6001680A683F
:100A2C0022F001020A60C06B1A6C012101FA02F279
:100A3C00426083F82110002083F8200070470000EA
:100A4C0038B5C36B1A6804682568016C04238B40A5
:100A5C001A4236D015F0040F33D0236813F0200F50
:100A6C0003D1236823F0040323600368434A9342B1
:100A7C0014D01432934219D01432934218D0143239
:100A8C00934218D01432934218D01432934202D0AD
:100A9C004FF0806203E04FF4800200E00422384BF8
:100AAC005A60C36A002B67D0984738BD4022F6E7DE
:100ABC004FF48062F3E74FF48042F0E74FF480226A
:100ACC00EDE702238B401A423BD015F0020F38D0D1
:100ADC00236813F0200F06D1236823F00A03236048
:100AEC00012380F821300368244A934214D0143235
:100AFC0093421BD0143293421AD0143293421AD020
:100B0C00143293421AD01432934202D04FF0007236
:100B1C0003E04FF4001200E00222194B5A6000234C
:100B2C0080F82030836A3BB3984738BD2022F4E725
:100B3C004FF40072F1E74FF40052EEE74FF400323D
:100B4C00EBE7082303FA01F10A4215D015F0080F60
:100B5C0012D0236823F00E032360C16B026C0123B7
:100B6C0003FA02F24A60836380F82130002380F894
:100B7C002030036B03B1984738BD00BF080002401A
:100B8C0000000240F0B583B00026344671E0002D21
:100B9C0000F0A180012D00D1CE68FF2B00F2AF80B8
:100BAC008646FF2B00F2AE80A500DEF800200F2752
:100BBC00AF4022EA070206FA05F52A43CEF80020D8
:100BCC004A6812F0805F53D0634A956945F001057D
:100BDC009561926902F001020192019AA508AF1C7D
:100BEC005E4A52F8272004F00307BF004FF00F0EA7
:100BFC000EFA07FE22EA0E02DFF870E1704500F0F3
:100C0C0088800EF5806E704500F086800EF5806E43
:100C1C00704500F084800EF5806E704576D04FF0F4
:100C2C00040E0EFA07F73A4302354C4F47F82520CD
:100C3C004A6812F4803F75D0494D2A681A432A60DD
:100C4C004A6812F4003F73D0454D6A681A436A60D3
:100C5C004A6812F4801F71D0414DAA681A43AA60E9
:100C6C004A6812F4001F6FD03D4DEA681343EB60E5
:100C7C0001340F2C6ED80122A2400B6813409A420B
:100C8C00F6D14D68122D30D00BD8022D2AD07FF61C
:100C9C007EAF032D2FD0112D7FF47FAFCE6804369D
:100CAC007BE7304FBD4216D00CD92F4FBD4212D02E
:100CBC0007F58037BD420ED0A7F58017BD427FF4F3
:100CCC006CAF08E0A7F58017BD4204D007F580375C
:100CDC00BD427FF462AF8D687DB1012D08D04261B9
:100CEC0008265AE7CE68083657E7CE680C3654E724
:100CFC000261082651E700264FE704264DE700F174
:100D0C00040E4EE7A4F10805AD004EE74FF0030EBC
:100D1C0087E74FF0000E84E74FF0010E81E74FF0AC
:100D2C00020E7EE70E4D2A6822EA03022A6087E74C
:100D3C000B4D6A6822EA03026A6089E7084DAA68CB
:100D4C0022EA0302AA608BE7054DEA6822EA030354
:100D5C00EB608DE703B0F0BD0010024000000140D5
:100D6C000004014000002110000031100008014077
:100D7C008368194201D1002070470120704712B9D5
:100D8C0009040161704701617047002866D0F0B515
:100D9C0087B0044690F82934C3B1032384F829346E
:100DAC00206801F06AFB254655F8107B6E460FCD86
:100DBC000FC62B683360231D0ECB384601F04DFB5C
:100DCC000021206801F063FB002315E080F8283433
:100DDC0003F006FEE1E704EB4312012182F829102F
:100DEC0082F828309386002182F82B109163D1630E
:100DFC009A1C5201A15001330E2BECD9002312E0A6
:100E0C0004EB4312002182F8291282F828329386CF
:100E1C0082F82B12C2F83812C2F83C1203F11202FB
:100E2C005201A15001330E2BEAD9254655F8107BFF
:100E3C006E460FCD0FC62B683360231D0ECB384684
:100E4C0001F027FB002584F82450012384F8293471
:100E5C00206801F037FE284607B0F0BD012070472E
:100E6C0090F82834012B01D10220704710B50446AC
:100E7C00012180F8281403F0E2FE206801F020FE26
:100E8C00206801F0F1FA002084F8280410BD90F8D5
:100E9C002834012B01D10220704710B504460123E0
:100EAC0080F8283480F82410006801F003FE00203C
:100EBC0084F8280410BD38B54DB2002D12DB01F0BA
:100ECC007F04640104F50A74044401F07F0121706D
:100EDC00ED0F65702261E37090F82834012B07D177
:100EEC00022038BD01F07F04640128340444ECE78F
:100EFC000546012380F828342146006801F0DFFA0A
:100F0C00002085F8280438BD4AB2002A10DB01F015
:100F1C007F035B0103F50A73034401F07F01197031
:100F2C00D20F5A7090F82824012A07D1022070475A
:100F3C0001F07F035B0128330344EEE710B5044650
:100F4C00012280F828241946006801F051FC002089
:100F5C0084F8280410BD70B501F07F056C0104F510
:100F6C000A7101440444C4F83C2205F112025201F6
:100F7C00861883500023736084F8293284F8285231
:100F8C0025B1006801F0BBFD002070BD006801F0C8
:100F9C00B6FDF9E770B501F07F056C0104F128018D
:100FAC0001440444E263AA1C5201861883500023B6
:100FBC007360012384F8293084F8285025B1006827
:100FCC0001F09DFD002070BD006801F098FDF9E76F
:100FDC0070B582B005460023ADF80630ADF804308C
:100FEC0095E103889BB223F4E14323F070039BB299
:100FFC0003802A68B2F850309BB295F8281003EBA6
:10100C00C103023302EB4303D3F80034C3F30903E7
:10101C006B64EA6B1344EB630021284603F012FD6A
:10102C0095F82430002B00F072812B6C002B40F0D3
:10103C006E812A6895F8243043F08003A2F84C3076
:10104C00002385F8243062E1B0F850309BB295F85B
:10105C00282203EBC203063300EB4303D3F800341E
:10106C00C3F30903C5F84432B5F82C2205F22C4120
:10107C0001F0ABFE2A68138823F070031B051B0DCF
:10108C001380284603F0CCFC41E1B5F82C22D5F8AE
:10109C003C1201F09AFED5F84422D5F83C321344A8
:1010AC00C5F83C3272E1C1F34F0211F0010F01D0CF
:1010BC00013292B2920292B2C3F8002484E130F869
:1010CC0024309BB2ADF80430BDF8043013F4004F5B
:1010DC0036D1BDF8043013F0800F00F018812A6867
:1010EC0032F824309BB223F4E14323F070039BB21B
:1010FC0022F8243005EB441393F83230002B40F0E7
:10110C00B6802868B0F850309BB205EB441292F8C8
:10111C00282003EBC203023300EB4303D3F8003463
:10112C00C3F30903A21C05EB42125360002B00F021
:10113C00CD8005EB44118A8DC96B01F0CBFCC5E069
:10114C0030F8243023F070031B051B0D20F82430DD
:10115C0005EB441393F83232DBB92868B0F8503001
:10116C009BB205EB441292F8282203EBC203063320
:10117C0000EB4303B3F80064C6F309068EB305EB2A
:10118C0044113346B1F82C22D1F83C1201F01DFE6B
:10119C0027E0286805EB441393F8282230F8223016
:1011AC0013F4804F43D0B0F850309BB203EBC20322
:1011BC00023300EB4303B3F80064C6F3090666BBC5
:1011CC002A6805EB441393F8281232F8213023F0E7
:1011DC00F0031B051B0D43F4004343F0C00322F83E
:1011EC00213004F112035B01E9184A6832444A6069
:1011FC0005EB4411D1F83C223244C1F83C22EB58A7
:10120C001BB1D1F838128E4229D205EB441393F856
:10121C002812284603F00CFC5BE705EB441133461F
:10122C00B1F82E22D1F83C1201F0CFFDC8E7B0F88E
:10123C0050309BB203EBC203063300EB4303B3F80D
:10124C000064C6F30906002EBAD005EB44113346F0
:10125C00B1F83022D1F83C1201F0B7FDB0E705EB44
:10126C00441191F828122846FFF775FE31E72868DB
:10127C0005EB441393F8282030F8223013F0400F7C
:10128C0000F0B880B0F850309BB203EBC2030233CD
:10129C0000EB4303D3F80034C3F30903A21C05EBA2
:1012AC0042125360002B40F09E802A6805EB4413D9
:1012BC0093F8281032F8213023F0F0031B051B0D96
:1012CC0043F4404343F0800322F821302A68B2F8FB
:1012DC0050309BB205EB441090F8281003EBC1037F
:1012EC00023302EB4303D3F80024C2F30902A31C1C
:1012FC005B01E9184A60C16B0A44C263EB58002BCE
:10130C0040F0928090F82810284603F09BFB286848
:10131C00B0F844309BB2ADF8063013F4004F00F037
:10132C008B80BDF8064014F00F047FF4C8AEBDF8F6
:10133C00063013F0100F3FF454AE03889BB2ADF897
:10134C000430BDF8043013F4006F7FF47DAEBDF8AB
:10135C00043013F4004FDAD0038823F070031B051C
:10136C001B0D03802868B0F850309BB295F82822EA
:10137C0003EBC203063300EB4303D3F80034C3F38F
:10138C000903C5F84432002B7FF47FAE00212846B8
:10139C0003F04EFB2A68B2F850309BB2063302EBD6
:1013AC004303D5F838123E297FF67DAEC1F34F12B8
:1013BC0011F01F0F01D1013A92B26FEAC2626FEACB
:1013CC00524292B2C3F800242A6813889BB223F4C9
:1013DC00804323F0700383F4405343F4004343F001
:1013EC008003138093E705EB4411CA8DC96B01F0A0
:1013FC0071FB5AE7B0F850309BB203EBC2030633D3
:10140C0000EB4303D3F80034C3F30903A21C05EB30
:10141C0042125360002B3FF448AF05EB44110A8E87
:10142C00C96B01F057FB40E705EB441494F8281006
:10143C002846FFF7AFFD6AE7002002B070BD10B57B
:10144C000446006801F040FB10F4004F45D12068C1
:10145C0001F03AFB10F4806F43D1206801F034FBAB
:10146C0010F4804F08D02268B2F844309BB223F4B9
:10147C0080439BB2A2F84430206801F025FB10F4A5
:10148C00005F08D02268B2F844309BB223F40053BA
:10149C009BB2A2F84430206801F016FB10F4805F78
:1014AC0030D1206801F010FB10F4006F49D1206896
:1014BC0001F00AFB10F4007F66D1206801F004FBF8
:1014CC0010F4807F08D02268B2F844309BB223F429
:1014DC0080739BB2A2F8443010BD2046FFF778FD14
:1014EC00B5E72268B2F844309BB223F480639BB218
:1014FC00A2F84430204603F0B4FA00212046FFF74E
:10150C00C6FCAAE72268B2F840309BB223F0040371
:10151C009BB2A2F840302268B2F840309BB223F064
:10152C0008039BB2A2F84030204603F0B7FA2268B9
:10153C00B2F844309BB223F480539BB2A2F84430EF
:10154C00AFE72268B2F840309BB243F00803A2F830
:10155C0040302268B2F844309BB223F400639BB253
:10156C00A2F844302268B2F840309BB243F0040336
:10157C00A2F84030206801F0A7FA10F4805F96D1F1
:10158C00204603F07BFA92E72268B2F844309BB213
:10159C0023F400739BB2A2F84430204603F05BFAAC
:1015AC008BE738B54AB2002A10DB4B0103F50A73FE
:1015BC00034401249C7001F07F041C70D20F5A70FC
:1015CC0090F82824012A07D1022038BD01F07F03AE
:1015DC005B0128330344ECE70546012280F82824FC
:1015EC001946006801F0E6F91CB1002085F82804C2
:1015FC0038BD05F22C41286801F06AFAF5E710B500
:10160C004AB2002A10DB4B0103F50A730344002491
:10161C009C7001F07F011970D20F5A7090F8282439
:10162C00012A07D1022010BD01F07F035B01283392
:10163C000344ECE70446012280F82824194600688C
:10164C0001F0EFF9002084F8280410BD11F0800F90
:10165C000CD001F07F014901283101445AB101221B
:10166C008A72CB801B0C0B8100207047490101F55D
:10167C000A710144F2E78A728B80F5E782B0084B5D
:10168C001B68084AA2FB03235B0A00FB03F00190D2
:10169C0000BF019B5A1E0192002BF9D102B070477A
:1016AC0088000020D34D621070B582B004460368E8
:1016BC0013F0010F3DD0AC4B5B6803F00C03042B13
:1016CC002ED0A94B5B6803F00C03082B23D0636866
:1016DC00B3F5803F51D0002B55D103F1804303F576
:1016EC0004331A6822F480321A601A6822F48022B9
:1016FC001A606368002B60D0FEF766FD05469A4BB6
:10170C001B6813F4003F14D1FEF75EFD401B6428E8
:10171C00F5D90320AFE1944B5B6813F4803FD6D02E
:10172C00914B1B6813F4003F03D06368002B00F04F
:10173C009F81236813F0020F65D08B4B5B6813F00D
:10174C000C0F4ED0884B5B6803F00C03082B43D076
:10175C002369002B79D00122844B1A60FEF734FDEB
:10176C000546814B1B6813F0020F65D1FEF72CFD6B
:10177C00401B0228F5D903207DE17B4A136843F412
:10178C0080331360B5E7B3F5A02F09D0764B1A68F8
:10179C0022F480321A601A6822F480221A60A8E7B8
:1017AC0003F18043A3F53C331A6842F480221A609B
:1017BC001A6842F480321A609BE7FEF705FD054675
:1017CC00694B1B6813F4003FB3D0FEF7FDFC401BC4
:1017DC006428F5D903204EE1634B5B6813F4803F1A
:1017EC00B6D1614B1B6813F0020F04D02369012B97
:1017FC0001D001203FE15C4A136823F0F8036169D2
:10180C0043EAC1031360236813F0080F32D0A369B5
:10181C00002B6ED00122564B1A60FEF7D5FC054604
:10182C00514B5B6A13F0020F21D1FEF7CDFC401B2C
:10183C000228F5D903201EE14B4A136823F0F80364
:10184C00616943EAC1031360DDE70022474B1A606C
:10185C00FEF7BAFC0546444B1B6813F0020FD2D0BE
:10186C00FEF7B2FC401B0228F5D9032003E101204E
:10187C00FFF704FF236813F0040F00F099803A4B34
:10188C00DB6913F0805F46D1374BDA6942F0805246
:10189C00DA61DB6903F080530193019B0125354B21
:1018AC001B6813F4807F38D0E368012B49D0002BE0
:1018BC004DD103F1804303F504331A6A22F001027F
:1018CC001A621A6A22F004021A62E368002B5DD0D5
:1018DC00FEF77AFC0646244B1B6A13F0020F66D106
:1018EC00FEF772FC801B41F288339842F3D9032037
:1018FC00C1E000221E4B1A60FEF766FC05461A4B2F
:10190C005B6A13F0020FB5D0FEF75EFC401B022899
:10191C00F5D90320AFE00025C1E7164A136843F45C
:10192C0080731360FEF750FC0646124B1B6813F4D1
:10193C00807FB9D1FEF748FC801B6428F5D90320C1
:10194C0099E0094A136A43F001031362BDE7052BC2
:10195C0012D0054B1A6A22F001021A621A6A22F09E
:10196C0004021A62B1E700BF0010024000004242BC
:10197C008004424200700040414B1A6A42F004025B
:10198C001A621A6A42F001021A629EE7FEF71CFC08
:10199C0006463B4B1B6A13F0020F08D0FEF714FCF3
:1019AC00801B41F288339842F3D9032063E0E5B9F8
:1019BC00E369002B5ED0324A526802F00C02082A0E
:1019CC005BD0022B17D000222E4B1A60FEF7FCFBCB
:1019DC0004462B4B1B6813F0007F47D0FEF7F4FB3B
:1019EC00001B0228F5D9032045E0254AD36923F0D2
:1019FC008053D361DCE70022224B1A60FEF7E4FB34
:101A0C0005461F4B1B6813F0007F06D0FEF7DCFB6E
:101A1C00401B0228F5D903202DE0236AB3F5803F43
:101A2C001AD017494B6823F47413226A606A024374
:101A3C0013434B600122134B1A60FEF7C5FB04469F
:101A4C000F4B1B6813F0007F0ED1FEF7BDFB001B84
:101A5C000228F5D903200EE0094A536823F4003319
:101A6C00A1680B435360DCE7002004E0002002E097
:101A7C00012000E0002002B070BD0120FBE700BF98
:101A8C00001002406000424210B586B0154C94E83C
:101A9C000F000DF1180E0EE90F00238AADF804307B
:101AAC00114B5B6803F00C02082A18D1C3F3834274
:101ABC00724412F8102C13F4803F03D10B4800FB36
:101ACC0002F00DE0084B5B68C3F34043734413F81A
:101ADC00143C074800FB02F0B0FBF3F000E00448B4
:101AEC0006B010BDC84D00080010024000093D00B2
:101AFC0000127A00594B1B6803F007038B420CD27F
:101B0C00564A136823F007030B431360136803F062
:101B1C000703994201D00120704770B5036813F098
:101B2C00020F06D04E4A536823F0F0038468234317
:101B3C0053600D460446036813F0010F52D04368FE
:101B4C00012B23D0022B28D0454A126812F0020F29
:101B5C0000F0828042494A6822F0030213434B6032
:101B6C00FEF732FB06466368012B1DD0022B2AD0F0
:101B7C003B4B5B6813F00C0F34D0FEF725FB801B3E
:101B8C0041F288339842F3D9032070BD344A12686D
:101B9C0012F4003FDED1012070BD314A126812F000
:101BAC00007FD7D1012070BD2D4B5B6803F00C0377
:101BBC00042B17D0FEF708FB801B41F288339842A8
:101BCC00F2D9032070BD264B5B6803F00C03082B85
:101BDC0008D0FEF7F9FA801B41F288339842F2D90B
:101BEC00032070BD1D4B1B6803F007039D420CD2F4
:101BFC001A4A136823F007032B431360136803F08E
:101C0C0007039D4201D0012070BD236813F0040F1F
:101C1C0006D0134A536823F4E063E1680B43536026
:101C2C00236813F0080F07D00D4A536823F4605350
:101C3C00216943EAC1035360FFF726FF084B5B6839
:101C4C00C3F30313074AD35CD840074B186000203A
:101C5C00FEF776FA002070BD012070BD0020024016
:101C6C0000100240FC4D000888000020014B186851
:101C7C00704700BF8800002070B582B0044603682E
:101C8C0013F0010F34D03E4BDB6913F0805F48D169
:101C9C003B4BDA6942F08052DA61DB6903F0805326
:101CAC000193019B0125374B1B6813F4807F3AD0BD
:101CBC00334B1B6A13F4407311D0626802F4407208
:101CCC0093420CD02E4A136A23F440702E490126FD
:101CDC000E6000260E60106213F0010F37D1284AF7
:101CEC00136A23F4407361680B431362002D3FD1D8
:101CFC00236813F0020F06D0214A536823F44043A3
:101D0C00A1680B435360236813F0100F35D01C4AA5
:101D1C00536823F48003E1680B435360002002B046
:101D2C0070BD0025BFE7174A136843F48073136036
:101D3C00FEF74AFA0646134B1B6813F4807FB7D1A3
:101D4C00FEF742FA801B6428F5D90320E7E7FEF77B
:101D5C003BFA06460A4B1B6A13F0020FBFD1FEF783
:101D6C0033FA801B41F288339842F3D90320D6E72B
:101D7C00D36923F08053D361BAE70020CFE700BFCB
:101D8C0000100240007000404004424230B4036A2C
:101D9C0023F001030362036A4468826922F0730230
:101DAC000D682A4323F002038D682B430D4DA84286
:101DBC0009D00C4DA8420DD0446082614A68426340
:101DCC00036230BC704723F00803CD682B4323F02B
:101DDC000403EEE724F440744D692C438D692C43C5
:101DEC00EAE700BF002C014030B4036A23F480738F
:101DFC000362036A4468C26922F073020D682A43C5
:101E0C0023F400738D6843EA05230F4DA84209D0D3
:101E1C000D4DA8420ED04460C2614A68C263036291
:101E2C0030BC704723F40063CD6843EA052323F4E8
:101E3C008063EDE724F440544D6944EA05148D6940
:101E4C0044EA0514E7E700BF002C014030B4036AF4
:101E5C0023F480530362036A4468C26922F4E642A5
:101E6C000D6842EA052223F400538D6843EA0533DA
:101E7C00074DA84206D04460C2614A6802640362FE
:101E8C0030BC704724F480444D6944EA8514F2E771
:101E9C00002C014010B4036A046A24F001040462AB
:101EAC00846924F0F00444EA021223F00A030B4381
:101EBC008261036210BC704710B4036A23F01003F4
:101ECC0003628469036A24F4704444EA023223F006
:101EDC00A00343EA01138261036210BC704783685C
:101EEC0023F0700341F007010B438360704710B47B
:101EFC00846824F47F4442EA032319430C4384602E
:101F0C0010BC7047022380F83D300268136843F020
:101F1C0001031360012380F83D3000207047022339
:101F2C0080F83D300368196A41F21112114208D150
:101F3C00196A40F24442114203D11A6822F001029C
:101F4C001A60012380F83D300020704790F83C3037
:101F5C00012B7DD010B50446012380F83C300223C0
:101F6C0080F83D300268936823F47F4323F07703B5
:101F7C0093600B68402B57D010D9702B3ED01FD8D4
:101F8C00502B47D0602B32D1CA6849680068FFF7E4
:101F9C0093FF60212068FFF7A2FF28E0102B4DD0A3
:101FAC0008D9202B4FD0302B21D130210068FFF7DE
:101FBC0096FF1CE0DBB900210068FFF790FF16E0EC
:101FCC00B3F5805F0ED0B3F5005F10D1CB684A68D3
:101FDC0089680068FFF78BFF2268936843F480439D
:101FEC00936004E00268936823F007039360012375
:101FFC0084F83D30002084F83C0010BDCB684A6862
:10200C0089680068FFF773FF2268936843F07703D1
:10201C009360ECE7CA6849680068FFF73BFF502102
:10202C002068FFF75CFFE2E7CA6849680068FFF7C1
:10203C0031FF40212068FFF752FFD8E710210068DC
:10204C00FFF74DFFD3E720210068FFF748FFCEE7ED
:10205C000220704770477047704710B504460368FC
:10206C001A6912F0020F11D0DA6812F0020F0DD0BB
:10207C006FF002021A610123037703689B6913F066
:10208C00030F70D0FFF7E6FF0023237723681A694C
:10209C0012F0040F12D0DA6812F0040F0ED06FF0A9
:1020AC0004021A610223237723689B6913F4407F8F
:1020BC005FD02046FFF7CEFF0023237723681A69F1
:1020CC0012F0080F12D0DA6812F0080F0ED06FF071
:1020DC0008021A61042323772368DB6913F0030FCA
:1020EC004ED02046FFF7B6FF0023237723681A69EA
:1020FC0012F0100F12D0DA6812F0100F0ED06FF031
:10210C0010021A61082323772368DB6913F4407FDC
:10211C003DD02046FFF79EFF0023237723681A69E2
:10212C0012F0010F03D0DA6812F0010F36D12368D8
:10213C001A6912F0800F03D0DA6812F0800F34D1D4
:10214C0023681A6912F0400F03D0DA6812F0400FBE
:10215C0032D123681A6912F0200F03D0DA6812F01A
:10216C00200F30D110BD01F0A7FF2046FFF773FF01
:10217C008AE7204601F0A0FF2046FFF76CFF9BE7A3
:10218C00204601F099FF2046FFF765FFACE720469B
:10219C0001F092FF2046FFF75EFFBDE76FF00102F2
:1021AC001A61204601F098FFC1E76FF080021A61B6
:1021BC00204600F051F9C3E76FF040021A61204647
:1021CC00FFF74AFFC5E76FF020021A61204600F0C6
:1021DC0042F9C7E703681C4A904227D0B0F1804F00
:1021EC0024D0A2F59432904220D002F58062904225
:1021FC001CD0154A90421ED0B0F1804F1BD0A2F5D6
:10220C009432904217D002F58062904213D023F0A2
:10221C0080034A69134303608B68C3620B68836253
:10222C00094B98420CD001234361704723F0700393
:10223C004A681343DDE723F44073CA681343E6E7A7
:10224C000B690363EFE700BF002C0140A8B110B588
:10225C00044690F83D305BB1022384F83D30211DDB
:10226C002068FFF7B7FF012384F83D30002010BD34
:10227C0080F83C3002F062FBEEE701207047A8B119
:10228C0010B5044690F83D305BB1022384F83D3024
:10229C00211D2068FFF79EFF012384F83D300020AC
:1022AC0010BD80F83C3002F05FFBEEE70120704778
:1022BC0030B4036A23F010030362036A4468826932
:1022CC0022F4E6420D6842EA052223F020038D68D1
:1022DC0043EA05130E4DA84209D00D4DA8420ED06D
:1022EC00446082614A688263036230BC704723F0A9
:1022FC008003CD6843EA051323F04003EDE724F493
:10230C0040644D6944EA85048D6944EA8504E7E735
:10231C00002C014090F83C30012B28D010B504461D
:10232C00012380F83C30022380F83D300C2A0BD876
:10233C00DFE802F0070A0A0A110A0A0A150A0A0A51
:10234C0019000068FFF722FD012384F83D300020BE
:10235C0084F83C0010BD0068FFF7AAFFF4E70068A2
:10236C00FFF742FDF0E70068FFF770FDECE7022095
:10237C00704710B4012303FA01F4036A23EA04033F
:10238C000362036A8A401343036210BC7047000067
:10239C0010B504460C290DD8DFE801F0070C0C0C25
:1023AC001B0C0C0C210C0C0C27000268D36843F09E
:1023BC000203D36001222068FFF7DBFF2368104A79
:1023CC00934218D02268136843F001031360002075
:1023DC0010BD0268D36843F00403D360EAE70268D7
:1023EC00D36843F00803D360E4E70268D36843F092
:1023FC001003D360DEE75A6C42F400425A64E1E702
:10240C00002C014090F83C30012B22D030B401223A
:10241C0080F83C20022380F83D300468636823F088
:10242C0070036360046863680D682B436360046821
:10243C00A36823F08003A3600468A36849680B4376
:10244C00A36080F83D20002380F83C30184630BC57
:10245C007047022070477047704784B001A880E82D
:10246C000E00002004B07047B0F840309BB243F42B
:10247C003F43A0F8403000207047B0F8403023F4C0
:10248C0074535B045B0CA0F84030002070470020B4
:10249C00704784B038B505AC84E80E000123A0F871
:1024AC0040300024A0F84040A0F84440A0F8504030
:1024BC00FFF7DAFF2046BDE8384004B0704710B48F
:1024CC00CB78032B0FD8DFE803F0026E55610A7846
:1024DC0030F822309BB223F4EC4323F0700343F426
:1024EC00007320F822300A7830F8223023F0F00301
:1024FC001B051B0D134343F4004343F0800320F8EA
:10250C0022308B7A002B40F0B2804B78002B57D0C6
:10251C00B0F850309BB20A7803EBC20300EB4303D4
:10252C008A8852085200C3F800240A7830F8223006
:10253C0013F0400F0BD030F8223023F0F0031B05C2
:10254C001B0D43F4004343F0C00320F822300A78FB
:10255C0030F822309BB223F4E04323F0400383F0A5
:10256C00200343F4004343F0800320F82230002082
:10257C0010BC70470A7830F822309BB223F4EC433D
:10258C0023F070039BB220F82230ACE70A7830F8C5
:10259C0022309BB223F4EC4323F0700343F4C0636A
:1025AC0020F822309FE70A7830F822309BB223F4CF
:1025BC00EC4323F0700343F4806320F8223092E75D
:1025CC00B0F850309BB20A7803EBC203043300EB33
:1025DC0043038A8852085200C3F80024B0F85030E4
:1025EC009BB20A7803EBC203063300EB43030C697E
:1025FC003E2C30D9C4F34F1214F01F0F01D1013A05
:10260C0092B26FEAC2626FEA524292B2C3F80024ED
:10261C000A7830F8223013F4804F0BD030F8223087
:10262C0023F0F0031B051B0D43F4404343F08003E0
:10263C0020F822300A7830F822309BB223F4804301
:10264C0023F0700383F4405343F4004343F08003BE
:10265C0020F822308BE7C4F34F0214F0010F01D0A5
:10266C00013292B2920292B2C3F80024D0E70A78F7
:10267C0030F8223023F4F8731B051B0D43F401438F
:10268C0043F0800320F82230B0F850309BB20A7827
:10269C0003EBC20300EB4303CA8852085200C3F891
:1026AC000024B0F850309BB20A7803EBC203043319
:1026BC0000EB43030A8952085200C3F800244B78FC
:1026CC00002B4BD10A7830F8223013F4804F0BD00A
:1026DC0030F8223023F0F0031B051B0D43F440436C
:1026EC0043F0800320F822300A7830F8223013F0BF
:1026FC00400F0BD030F8223023F0F0031B051B0DDC
:10270C0043F4004343F0C00320F822300A7830F839
:10271C00223023F0F0031B051B0D43F4004343F060
:10272C00C00320F822300A7830F822309BB223F410
:10273C00804323F0700383F4405348F28004234316
:10274C0020F822300A7830F822309BB223F4E04390
:10275C0023F04003234320F8223008E70A7830F8AE
:10276C00223013F4804F0BD030F8223023F0F003DA
:10277C001B051B0D43F4404343F0800320F822302B
:10278C000A7830F8223013F0400F0BD030F822309A
:10279C0023F0F0031B051B0D43F4004343F0C0036F
:1027AC0020F822300A7830F8223023F0F0031B0591
:1027BC001B0D43F4404343F0800320F822300B7888
:1027CC0030F8232092B222F4E04222F0400248F288
:1027DC008004224320F823200A7830F822309BB260
:1027EC0023F4804323F07003234320F82230BEE609
:1027FC008B7A002B44D14B780BB30A7830F822300B
:10280C0013F0400F0BD030F8223023F0F0031B05EF
:10281C001B0D43F4004343F0C00320F822300A7828
:10282C0030F822309BB223F4E04323F0400343F40E
:10283C00004343F0800320F82230002070470A78D0
:10284C0030F8223013F4804F0BD030F8223023F0C4
:10285C00F0031B051B0D43F4404343F0800320F8A9
:10286C0022300A7830F822309BB223F4804323F0D4
:10287C00700343F4004343F0800320F82230DCE77C
:10288C0010B44B78002B4BD10A7830F8223013F46B
:10289C00804F0BD030F8223023F0F0031B051B0DBA
:1028AC0043F4404343F0800320F822300A7830F898
:1028BC00223013F0400F0BD030F8223023F0F0030D
:1028CC001B051B0D43F4004343F0C00320F82230DA
:1028DC000A7830F8223023F0F0031B051B0D43F46B
:1028EC00004343F0C00320F822300B7830F823204B
:1028FC0092B222F4804222F0700248F28004224309
:10290C0020F823200A7830F822309BB223F4E043DD
:10291C0023F04003234320F82230002010BC7047E2
:10292C000A7830F8223013F4804F0BD030F8223074
:10293C0023F0F0031B051B0D43F4404343F08003CD
:10294C0020F822300A7830F8223013F0400F0BD0E8
:10295C0030F8223023F0F0031B051B0D43F4004329
:10296C0043F0C00320F822300A7830F8223023F0EC
:10297C00F0031B051B0D43F4404343F0800320F888
:10298C0022300B7830F8232092B222F4E04222F06D
:10299C00400248F28004224320F823200A7830F8C1
:1029AC0022309BB223F4804323F07003234320F89E
:1029BC002230B2E70A788AB14B7813BB30F8223058
:1029CC009BB223F4804323F0700383F4805343F4CD
:1029DC00004343F0800320F8223010E030F822301E
:1029EC009BB223F4804323F0400383F4805383F0A1
:1029FC00100343F4004343F0800320F822300020FE
:102A0C00704730F822309BB223F4E04323F04003AC
:102A1C0083F0100343F4004343F0800320F822308A
:102A2C00EDE74B781BB30A7830F8223013F0400FE7
:102A3C000BD030F8223023F0F0031B051B0D43F4B0
:102A4C00004343F0C00320F822300A7830F82230DB
:102A5C009BB223F4E04323F0400383F0300343F4B0
:102A6C00004343F0800320F82230002070470A789E
:102A7C0030F8223013F4804F0BD030F8223023F092
:102A8C00F0031B051B0D43F4404343F0800320F877
:102A9C0022300A7830F822309BB223F4804323F0A2
:102AAC00700383F4405343F4004343F0800320F855
:102ABC002230DAE711B98023A0F84C30002070479F
:102ACC000020704700207047B0F8440080B2704777
:102ADC000020704701335B1000EB420202F580626C
:102AEC0063B110B40C78487844EA002422F8044B03
:102AFC000231013B002BF5D110BC70477047F8B583
:102B0C008A694C78012C35D00B699A4240F2F080DE
:102B1C00D21A8A618A7A002A40F0FA80B0F85020E2
:102B2C0092B20C7802EBC402063200EB42023E2B4E
:102B3C0040F2E280C3F34F1413F01F0F01D1013C9C
:102B4C00A4B26FEAC4646FEA5444A4B2C2F800445D
:102B5C000A7830F822309BB223F4804323F07003C0
:102B6C0083F4405343F4004343F0800320F82230B5
:102B7C000020F8BD0F69BA4226D9D21B8A610E46D5
:102B8C0005468B7A23B30B7830F8232012F0400FD4
:102B9C006CD0002C39D1B0F8502092B202EBC303A8
:102BAC00063300EB43033E2F23D9C7F34F1217F024
:102BBC001F0F01D1013A92B26FEAC2626FEA524220
:102BCC0092B2C3F800242AE000238B611746D6E7A3
:102BDC00BBB28A884969FFF77DFFB5F850309BB2CC
:102BEC00327803EBC203023305EB4303C3F80074E2
:102BFC002BE0C7F34F0217F0010F01D0013292B254
:102C0C00920292B2C3F8002409E0B0F8502092B2BC
:102C1C0002EBC303023300EB4303C3F800743289A5
:102C2C00BBB271692846FFF755FF7378002B4FD163
:102C3C00327835F8223023F0F0031B051B0D43F4DA
:102C4C00004343F0C00325F82230327835F82230A7
:102C5C009BB223F4E04323F0400383F0300343F4AE
:102C6C00004343F0800325F8223081E724BBB0F801
:102C7C00502092B202EBC303023300EB43033E2F0E
:102C8C000ED9C7F34F1217F01F0F01D1013A92B2B0
:102C9C006FEAC2626FEA524292B2C3F8002415E0A6
:102CAC00C7F34F0217F0010F01D0013292B292021A
:102CBC0092B2C3F8002409E0B0F8502092B202EBB3
:102CCC00C303023300EB4303C3F80074F288A7E795
:102CDC00012BBAD1327835F8223023F0F0031B05E2
:102CEC001B0D43F4404343F0800325F82230ACE73E
:102CFC0000238B6113460DE7C3F34F0413F0010F50
:102D0C0001D00134A4B2A402A4B2C2F800441FE75B
:102D1C00C4B9B0F8502092B20C7802EBC402023263
:102D2C0000EB42023E2B29D9C3F34F1413F01F0FB3
:102D3C0001D1013CA4B26FEAC4646FEA5444A4B25A
:102D4C00C2F800444A788ABBB0F8502092B20C7892
:102D5C0002EBC402063200EB42023E2B1AD9C3F33B
:102D6C004F1413F01F0F01D1013CA4B26FEAC464DD
:102D7C006FEA5444A4B2C2F80044E9E6C3F34F042A
:102D8C0013F0010F01D00134A4B2A402A4B2C2F812
:102D9C000044D7E7C3F34F0413F0010F01D0013403
:102DAC00A4B2A402A4B2C2F80044D1E6012A7FF472
:102DBC00CFAEB0F8502092B20C7802EBC4020232C3
:102DCC0000EB4202C2F80034C2E601335B1000EBA8
:102DDC00420202F5806204E0106821F8020B013B0C
:102DEC000432002BF8D17047292303800048704728
:102DFC0044000020D0F81832002083F850007047AF
:102E0C0010B5D0F81842E36C012B01D0002010BD96
:102E1C00D0F81C32DB686178207898470023E36493
:102E2C00F4E700000A230380004870477C00002070
:102E3C0010B5D0F818420B7813F060032FD0202B6C
:102E4C005BD14B78023B092B25D8DFE803F0150941
:102E5C0024242424241C10058B782364002010BD0A
:102E6C00012204F1400100F09CFC002010BD4B88B5
:102E7C001B0A6364002010BD012204F1440100F020
:102E8C0090FC002010BD0123E3648A79214600F0F8
:102E9C009DFC002010BD00F031FA022010BD4B78D3
:102EAC000A2B1FD00B2B24D0062B01D0002010BDD9
:102EBC004B881B0A222B07D0212B0DD000210A4650
:102ECC0000F06FFC002010BDCA88402A28BF4022A9
:102EDC00D0F81C321968F3E7CA88092A28BF0922DE
:102EEC000749EDE7012204F1480100F05AFC0020EB
:102EFC0010BD8B78A364002010BD002010BD00BF56
:102F0C007000002010B50446812101F02CFE012137
:102F1C00204601F028FED4F8183253B1D4F81C32F4
:102F2C009B689847D4F8180201F088FE0023C4F877
:102F3C001832002010BD70B50446402303228121B5
:102F4C0001F000FE402303220121204601F0FAFD8E
:102F5C00542001F06FFEC4F8180278B10546002623
:102F6C0080F85060D4F81C325B68984740232A469E
:102F7C000121204601F050FE304670BD012070BD8D
:102F8C0038B5D0F8185290F8FC41032C01D0002031
:102F9C0038BD95F85030002BF9D113460A46012163
:102FAC0085F85010812101F029FEF0E738B505466F
:102FBC00D0F8184200221A4B1A7005E0E15C194A4D
:102FCC00D1540133164A1370154B1B783F2BF5D98E
:102FDC00144B1B78452B0ED000F05AFE40221249A0
:102FEC001248FFF7CDFF402322460121284601F06D
:102FFC0013FE002038BD0B4B5B78432BECD1002229
:10300C00074B1A7006E0074AD15C074AD1540133CA
:10301C00034A1370024B1B783F2BF4D9DEE700BF39
:10302C00623E00200C3E0020C03D0020E43E00200B
:10303C0019B1C0F81C12002070470220704798B1DB
:10304C0008B50346D0F8140210B10020C3F81402DE
:10305C0009B1C3F810121846012380F8FC31027034
:10306C0001F022FD002008BD0220704719B1C0F804
:10307C001412002070470220704708B501F054FD6F
:10308C00002008BD08B5D0F8143223B11B6898474E
:10309C0018B1022008BD022008BD002008BD08B5EB
:1030AC00D0F814325B689847002008BD38B5044648
:1030BC0000F50275284600F00DF90123C4F8F4312F
:1030CC00B4F80E32C4F8F83194F8081201F01F036A
:1030DC00012B0ED03BB1022B10D001F08001204609
:1030EC0001F04FFD03E02946204600F071FA002064
:1030FC0038BD2946204600F08FFAF8E729462046CD
:10310C0000F0A6FAF3E710B5044619BB1346D0F845
:10311C00F421032A27D1D0F80C11D0F810219142B8
:10312C000BD8D0F814321B691BB190F8FC21032A80
:10313C000ED0204600F061FB15E0891AC0F80C1186
:10314C008A4228BF0A4692B2194600F04EFB0AE0AA
:10315C009847EEE70A46D0F814329B691BB190F8F9
:10316C00FC11032901D0002010BD11469847FAE745
:10317C0010B50446002947D11346D0F8F421022A91
:10318C0005D094F80032012B3AD0002010BDC16953
:10319C00026A914217D88169B1FBF2F302FB131357
:1031AC002BB98A4203D8D0F8F831994218D3D4F805
:1031BC001432DB681BB194F8FC21032A1DD0204685
:1031CC0000F026FBDDE78A1AC26192B2194600F0C4
:1031DC00F5FA00231A461946204601F01DFDD0E7EA
:1031EC000022114600F0EAFA0021C4F8F8110B464F
:1031FC000A46204601F010FDC3E720469847DEE75B
:10320C00002384F80032C0E70A46D0F814325B6918
:10321C00002BBAD090F8FC110329B6D1114698476F
:10322C00B3E738B5044640230022114601F08AFC6E
:10323C004025C4F810512B4600228021204601F075
:10324C0081FC2562012384F8FC31D4F818322BB1AF
:10325C00D4F814325B68217920469847002038BD99
:10326C0001740020704790F8FC3180F8FD31042384
:10327C0080F8FC310020704790F8FD3180F8FC316B
:10328C000020704708B590F8FC31032B01D00020CA
:10329C0008BDD0F81432DB69002BF8D09847F6E75C
:1032AC00002302E00133DBB201300278002AF9D1AD
:1032BC00184670474B88012B00D0704710B5044658
:1032CC00C0F80432D0F814329B689847204600F0BE
:1032DC0094FA10BD0B7803704B7843708B78CA78D6
:1032EC0003EB022343800B794A7903EB022383809F
:1032FC008B79CA7903EB0223C380704710B504465F
:10330C00802101F03EFC0021204601F03AFC10BD6A
:10331C0030B583B004460D4649880B0A013B062B99
:10332C0000F28480DFE803F00413278282667300C6
:10333C00D0F810321B680DF10601007C9847BDF8DF
:10334C00062012B1EB88002B74D103B030BD037C86
:10335C0043B9D0F814329B6A0DF10600984702234A
:10336C004370ECE7D0F81432DB6A0DF10600984795
:10337C0002234370E3E7C9B2052934D8DFE801F032
:10338C00030B131B232BD0F810325B680DF10601D5
:10339C00007C9847D3E7D0F810329B680DF10601FA
:1033AC00007C9847CBE7D0F81032DB680DF10601B2
:1033BC00007C9847C3E7D0F810321B690DF1060169
:1033CC00007C9847BBE7D0F810325B690DF1060121
:1033DC00007C9847B3E7D0F810329B690DF10601D9
:1033EC00007C9847ABE7D0F814329B6B0DF10602CA
:1033FC009847A4E7037C33B9D0F814325B6B0DF11A
:10340C00060098479BE72946FFF778FF9DE7037C6A
:10341C0043B9D0F814321B6B0DF106009847072303
:10342C0043708CE72946FFF769FF8EE72946FFF7C3
:10343C0065FF8AE79A4228BF1A46ADF80620014676
:10344C00204600F0AEF980E738B504468B88E3B926
:10345C00CB88D3B98D7805F07F0590F8FC31032B20
:10346C000CD080F8FE51294601F0BAFB204600F042
:10347C00C4F935B1022384F8FC3138BDFFF73EFFA7
:10348C0038BD012384F8FC3138BD2046FFF736FFE8
:10349C0038BD000038B504460D468978254B1970A7
:1034AC00012909D890F8FC31022B09D0032B1CD030
:1034BC002946FFF723FF38BD2946FFF71FFF38BD0C
:1034CC0081B14160032380F8FC31FFF7DBFD02285A
:1034DC0003D0204600F091F938BD29462046FFF76D
:1034EC000DFF38BD00F089F938BD89B143689942A8
:1034FC001DD0D9B2FFF7D3FD0E4B19786160204671
:10350C00FFF7C0FD02280DD0204600F076F938BD3B
:10351C00022380F8FC314160FFF7C1FD204600F02A
:10352C006CF938BD29462046FFF7E8FE38BD00F09F
:10353C0064F938BD2C01002008B5CB88012B08D1CB
:10354C0090F8FC31022B07D0032B0DD0FFF7D6FEE1
:10355C0008BDFFF7D3FE08BD0146002341F8083F24
:10356C00012200F01EF908BD0122011D00F019F91D
:10357C0008BD08B590F8FC31023B012B0CD8012397
:10358C00C360D0F804320BB10323C360022200F1F4
:10359C000C0100F006F908BDFFF7B0FE08BD10B530
:1035AC00044690F8FC31023B012B0ED84B88012BC2
:1035BC0000D010BD0023C0F80432D0F814329B6840
:1035CC009847204600F019F910BDFFF797FEF0E779
:1035DC0008B54B78092B1CD8DFE803F012181B1523
:1035EC001B09051B0F0CFFF793FE002008BDFFF70E
:1035FC002BFFFAE7FFF74EFFF7E7FFF79DFFF4E726
:10360C00FFF7B7FFF1E7FFF755FEEEE7FFF7C7FF50
:10361C00EBE7FFF773FEE8E738B504460D4690F884
:10362C00FC31032B11D10B79012B03D9FFF766FE6B
:10363C00002038BDD0F814329B689847EB88002BDB
:10364C00F6D1204600F0D9F8F2E7FFF757FEEFE786
:10365C0038B505460C468A880B7803F06003202B9E
:10366C0011D0D1B26378012B2BD0002B4DD0032B72
:10367C000DD190F8FC31022B0BD0032B10D021462E
:10368C00FFF73CFE03E0D0F814329B68984700200B
:10369C0038BD0029FBD08029F9D001F072FAF6E789
:1036AC00638823B919B1802901D001F06AFAD5F8E1
:1036BC0014329B68214628469847284600F09DF80E
:1036CC00E5E790F8FC31022B05D0032B0AD02146FC
:1036DC00FFF714FEDBE70029D9D08029D7D001F001
:1036EC0050FAD4E76388002BD1D111F07F0F03D1AE
:1036FC00284600F082F8CAE701F051FAD5F81432E6
:10370C009B68214628469847F2E790F8FC31022B3B
:10371C0005D0032B09D02146FFF7F0FDB7E711F0D8
:10372C007F0FB4D001F02DFAB1E712F0800F11D158
:10373C0001F07F04103400EB04140434284601F02B
:10374C003CFA70B10123236002222146284600F086
:10375C0028F89CE701F07F04013400EB04140434D6
:10376C00ECE700232360EFE7D0B170B50D461646A9
:10377C000446FFF795FD0130400080B23080287080
:10378C0003236B70022307E05A1CD2B20134E954B4
:10379C000233DBB20021A95421780029F4D170BD89
:1037AC00704710B513460222C0F8F4218361C3613F
:1037BC000A46002101F022FA002010BD08B513467C
:1037CC000A46002101F01AFA002008BD10B5134674
:1037DC000322C0F8F421C0F80831C0F80C310A46B5
:1037EC00002101F019FA002010BD08B513460A4655
:1037FC00002101F011FA002008BD08B50423C0F81F
:10380C00F43100231A46194601F0F8F9002008BDDE
:10381C0008B50523C0F8F43100231A46194601F007
:10382C00FBF9002008BD000000B585B01B481C4BFF
:10383C0003604FF4807383600023C36043614FF4D3
:10384C000022C261436002230361FCF723FFB0B97D
:10385C000B230193012302930623039301A90F4821
:10386C00FCF708FD80B90A2301930223029301A9F6
:10387C000A48FCF7FFFC60B905B05DF804FB502169
:10388C00084800F079FEE3E75A21064800F074FE80
:10389C00E9E76321034800F06FFEEDE7C801002063
:1038AC0000240140DC4D000800B585B01B481C4BC2
:1038BC0003604FF4807383600023C36043614FF453
:1038CC000022C261436002230361FCF7E3FEB0B93E
:1038DC000D230193012302930623039301A90F489F
:1038EC00FCF7C8FC80B90C2301930223029301A9B5
:1038FC000A48FCF7BFFC60B905B05DF804FB772102
:10390C00084800F039FEE3E78121064800F034FE58
:10391C00E9E78A21034800F02FFEEDE7980100202B
:10392C0000280140DC4D000810B586B00368254A1C
:10393C00934204D0244A934231D006B010BD0446C1
:10394C00224B9A6942F400729A619B6903F40073EA
:10395C000093009B03230293039302A91C48FDF7D9
:10396C0011F91C481C4B03600023436083608022C8
:10397C00C2604FF4007202614FF4006242618361D5
:10398C004FF40053C361FCF7CDFF18B9114B236200
:10399C005C62D2E7AF21114800F0EEFDF6E70B4B6D
:1039AC009A6942F480629A619B6903F48063019383
:1039BC00019B0C2302930323039302A90448FDF7F4
:1039CC00E1F8BAE700240140002801400010024051
:1039DC0000100140F801002008000240DC4D0008F6
:1039EC0000B583B00A4B5A6942F001025A615B6917
:1039FC0003F001030193019B002211460B20FCF7FD
:103A0C0011FF0B20FCF740FF03B05DF804FB00BF77
:103A1C00001002402DE9F04188B0384B9A6942F011
:103A2C0010029A619A6902F010020092009A9A6947
:103A3C0042F020029A619A6902F020020192019AE6
:103A4C009A6942F004029A619A6902F004020292A5
:103A5C00029A9A6942F008029A619B6903F0080382
:103A6C000393039B264F00224FF400413846FDF789
:103A7C0086F9DFF89880012204214046FDF77FF992
:103A8C00204D002218212846FDF779F94FF6704396
:103A9C00049300240594069404A91B48FDF772F8BE
:103AAC00F32304930594069404A93846FDF76AF8A9
:103ABC00672304930594069404A92846FDF762F83D
:103ACC004FF400430493012605960224079404A99D
:103ADC003846FDF757F8042304930596079404A978
:103AEC004046FDF74FF8182304930596079404A954
:103AFC002846FDF747F808B0BDE8F08100100240F9
:103B0C0000080140000C014000100140001401406D
:103B1C00F0B585B0012701970323039304AC04236C
:103B2C0044F8103D184D21462846FDF72BF8402649
:103B3C00009621461548FDF725F8009721462846A2
:103B4C00FDF720F80223009321462846FDF71AF8CA
:103B5C000096A5F5806521462846FDF713F88023CD
:103B6C00009321462846FDF70DF8102300932146BB
:103B7C002846FDF707F82023009321462846FDF739
:103B8C0001F805B0F0BD00BF000C01400010014071
:103B9C0070B584B000230193012302930323039394
:103BAC0004AC4FF4006344F8103D1B4D21462846ED
:103BBC00FCF7E8FF4FF48063009321462846FCF79E
:103BCC00E1FF20230093154E21463046FCF7DAFF27
:103BDC004FF48053009321462846FCF7D3FF4FF453
:103BEC000053009321462846FCF7CCFF402300935A
:103BFC0021463046FCF7C6FF4FF4004300932146A4
:103C0C002846FCF7BFFF4FF480430093214628461B
:103C1C00FCF7B8FF04B070BD00100140000C01406F
:103C2C00002305E00021054A42F8231001339BB222
:103C3C0040F6D7629342F5D9704700BF440200208A
:103C4C001F280AD84000C0B2431CDBB2044AD35C24
:103C5C00105C00EB032080B270470020704700BF5F
:103C6C000C3E002008B540F6D86205490548FCF723
:103C7C0053FC0548FCF7DAFB0448FEF743F908BD92
:103C8C0044020020C801002098010020A43E00201E
:103C9C00F8B50022914B1A7005E00021904AD154DE
:103CAC0001338E4A13708D4B1B783F2BF5D90020B6
:103CBC00FFF7C6FF8B4B18800238032800F2F08008
:103CCC00DFE810F011000400E6003B00864A117892
:103CDC00834B197052785A70844A12789A70844ABD
:103CEC001278DA70F8BD814B1B78C82B04D07C4B52
:103CFC00FF221A705A70F8BD7B4A1178784B1970F4
:103D0C0052785A707B4C2046FEF709F9FFF788FF72
:103D1C000120FFF795FF784BD86240F6D8627749BF
:103D2C007748FCF7F9FB7748FCF780FB2046FEF759
:103D3C00E9F8C922744B1A70F8BD6C4B1B78C82B70
:103D4C0004D0674BFF221A705A70F8BD664A11787E
:103D5C00634B197052785A706648FEF7E0F8FFF71B
:103D6C005FFF0120FFF76CFF634BD8620220FFF767
:103D7C0067FF0446654B188000235D4A1370644A44
:103D8C001380644A1380644A1380644A1380644A23
:103D9C001380644A1380644A1380644A1380644A13
:103DAC001380644A1380C31E052B6CD8DFE803F024
:103DBC00036B6B0354540520FFF742FF554B1880DF
:103DCC000620FFF73DFF544B18800720FFF738FF04
:103DDC00524B18800820FFF733FF514B18800920F5
:103DEC00FFF72EFF4F4B18800A20FFF729FF4E4B91
:103DFC0018800B20FFF724FF4C4B18800C20FFF78A
:103E0C001FFF4B4B18800D20FFF71AFF494B1880F2
:103E1C00494C002204212046FCF7B1FF002240212E
:103E2C004648FCF7ACFF002201212046FCF7A7FF17
:103E3C00002202212046FCF7A2FF344B1B88032BE7
:103E4C0006D06E222A4B1A70C9222F4B1A70F8BD5D
:103E5C006422274B1A70F7E70320FFF7F1FEC0EB43
:103E6C00401300EB8300C300354A1380072C06D0A7
:103E7C0079221F4B1A70C922234B1A70F8BD782275
:103E8C001B4B1A70F7E7164BFF221A705A70F8BDCD
:103E9C00164B1B78C82B04D0114BFF221A705A708A
:103EAC00F8BD114BD8789C7804EB00239BB25B00D7
:103EBC009BB2244A13800421234A1170234A138095
:103ECC0014339BB2224A138040F6D862934200F21C
:103EDC00938000221F4B1A8081E000BF623E0020BD
:103EEC00C03D0020320100200C3E00208600002046
:103EFC003A010020A43E00200004004044020020AF
:103F0C00C80100209801002087000020B03D00204F
:103F1C00B63D00205A3E0020603E00203E020020AC
:103F2C00B23D0020BE3D0020B43D00204C3E0020A0
:103F3C00AE3D002040020020000C0140001001406A
:103F4C0036010020543E0020AC3D0020583E00209D
:103F5C00043E0020BC3D00202A490B882A4D55F810
:103F6C0023602A4F3E6001339BB255F82370284DD5
:103F7C002F6001330B80C6F30B0EC7F30B030EEB54
:103F8C00033E24490B78244D05F803E00133DBB2E2
:103F9C00CEF3072C05F803C00133DBB2CEF3074E8A
:103FAC0005F803E00133DBB2C6F30B46DFF878E02B
:103FBC00CEF80060C7F30B4706EB0736EE5401331F
:103FCC00DBB2C6F30727EF54360C144F3E600133B7
:103FDC00DBB2EE5401330B700132114B1A80104BD3
:103FEC001A88092AB8D90F4A11780B4B19705278D4
:103FFC005A709C70D870F8BD074BFF221A705A701B
:10400C00F8BD00BF583E002044020020B83D0020FF
:10401C00083E0020AC3D0020C03D0020A83D002003
:10402C00BC3D00200C3E0020003E00201E4A1378B0
:10403C000133DBB21370092B34D900221A4B1A70DE
:10404C001A4A537843F002035370194A1378013318
:10405C00DBB21370092B25D90022154B1A70134AA9
:10406C00537843F004035370124A13780133DBB2D4
:10407C001370092B16D900220E4B1A700B4B5A7861
:10408C0042F008025A7093F90330002B05DB074A03
:10409C00D37843F08003D3707047044BDA786FF316
:1040AC00C712DA70704700BF563E0020503E002009
:1040BC003C0200205E3E00200268054B9A4200D074
:1040CC007047044A537843F001035370F8E700BF7C
:1040DC0000080040503E002008B502680A4B9A4286
:1040EC0000D008BD0122094B1A70094A138801330C
:1040FC009BB213803C2BF4D90648FCF753FB0022EF
:10410C00034B1A80EDE700BF00040040380100208B
:10411C002E010020C8010020C822014B1A707047E4
:10412C008700002008B50268044B9A4200D008BDF5
:10413C000348FDF7F4FEFFF7EFFFF8E7002401401A
:10414C00A43E00207047704708B501224FF400418F
:10415C000148FCF714FE08BD0008014008B5002218
:10416C004FF400410148FCF70AFE08BD000801406D
:10417C0008B5012210210248FCF701FE08BD00BF62
:10418C00000C014008B5002210210248FCF7F7FD95
:10419C0008BD00BF000C014008B5964B1B8813B13D
:1041AC00013B944A1380944B1B8813B1013B924AF8
:1041BC001380924B1B78924A1278934205D0904A06
:1041CC001370C82B0ED0C92B0FD08D4B1B78C82B5E
:1041DC000ED0C92B15D0884B1B8813B9C822874B1E
:1041EC001A7008BDFFF7BAFFEFE7FFF7CBFFECE75C
:1041FC00804B1B88002BF4D14FF47A727D4B1A80C4
:10420C0008BD804B1B78642B1BD06E2B00F0858077
:10421C00782B00F01181792BE3D14FF480617A482F
:10422C00FCF7A6FD002800F02181734B1B88002BA6
:10423C00D7D1FA22714B1A7040F6B8326E4B1A80F5
:10424C0008BD724A138801339BB21380704A1288DE
:10425C00934232D06D4B1A886E4B1B889A4232D0E7
:10426C006A4B1A886C4B1B889A4232D0674B1A885F
:10427C006A4B1B889A4232D0644B1A88684B1B8855
:10428C009A4232D0614B1A88664B1B889A4232D0C4
:10429C005E4B1A88644B1B889A4232D05B4B1A884F
:1042AC00624B1B889A4232D0584B1A88604B1B8841
:1042BC009A4296D1FFF7D6FC08BD012204215D4835
:1042CC00FCF75DFDC6E7002204215A48FCF757FDB8
:1042DC00C6E7012240214C48FCF751FDC6E70022FD
:1042EC0040214948FCF74BFDC6E7012211465148D5
:1042FC00FCF745FDC6E7002201214E48FCF73FFDC7
:10430C00C6E7012202214B48FCF739FDC6E7002223
:10431C0002214848FCF733FDC6E73C4A13880133B9
:10432C009BB213803A4A1288934233D0374B1A8887
:10433C00384B1B889A4233D0344B1A88364B1B8827
:10434C009A4233D0314B1A88344B1B889A4233D063
:10435C002E4B1A88324B1B889A4233D02B4B1A881F
:10436C00304B1B889A4233D0284B1A882E4B1B8813
:10437C009A4233D0254B1A882C4B1B889A4233D047
:10438C00224B1A882A4B1B889A427FF42AAFFFF7DC
:10439C0069FC08BD012204212648FCF7F0FCC5E7A6
:1043AC00002204212348FCF7EAFCC5E70122042182
:1043BC002048FCF7E4FCC5E7002204211D48FCF76B
:1043CC00DEFCC5E7012204211A48FCF7D8FCC5E73E
:1043DC00002204211748FCF7D2FCC5E70122042176
:1043EC001448FCF7CCFCC5E7002204211148FCF76B
:1043FC00C6FCC5E7340100203601002087000020F0
:10440C00860000203A01002000100140B63D00203B
:10441C00603E0020B43D00203E0200204C3E0020B7
:10442C00B23D0020AE3D0020BE3D002040020020E9
:10443C005A3E0020000C01404FF480610E48FCF7FE
:10444C0097FC01280CD00D4B1B88002B7FF4C9AEB8
:10445C00FA220B4B1A7040F6B832084B1A8008BD82
:10446C00FFF700FC7A22074B1A7008BDFFF7FAFB26
:10447C007B22044B1A7008BD00100140360100204D
:10448C00870000203A01002008B501224021044891
:10449C00FCF775FC4FF49670FBF79CFE08BD00BF53
:1044AC000008014008B50A4B1B78012B00D008BD51
:1044BC000022074B1A70074B022119705A706421A5
:1044CC00997005490A80DA70FFF7E2FBEFE700BF4D
:1044DC00390100200C3E0020543E002008B5234A30
:1044EC00138801339BB21380B3F57A7F02D3002279
:1044FC001E4B1A801D4B1B884BB10A2B18D0C82B96
:10450C001CD0D22B20D0B3F5FA7F23D008BD0122CA
:10451C0008211748FCF733FC164B1B78C82B04D02A
:10452C00C92BF3D1FFF710FE08BDFFF721FE08BD24
:10453C00002208210E48FCF722FC08BD01220821AC
:10454C000B48FCF71CFC08BD002208210848FCF7AE
:10455C0016FC08BD074B1B78C82B04D0C92BD5D132
:10456C00FFF7FCFDD2E7FFF70DFE08BD3001002080
:10457C00000C014086000020FEE7000000B595B05D
:10458C0001220A924FF480330B9300210C910E926E
:10459C000222119212934FF4E01313930AA8FDF721
:1045AC0083F860BB0F230593022106910023079328
:1045BC004FF480620892099305A8FDF79BFA18BB8B
:1045CC00122301934FF4004303930023049301A897
:1045DC00FDF752FBE8B9FDF749FB104BA3FB00308C
:1045EC008009FCF75DF90420FCF770F900221146F4
:1045FC004FF0FF30FCF716F915B05DF804FB40F2F4
:10460C001D510748FFF7B8FF40F22B510448FFF744
:10461C00B3FF40F233510248FFF7AEFFD34D6210A7
:10462C00EC4D000808B5FBF7B1FDFFF7A7FFFFF74E
:10463C00F1F9FFF7D5F900F0B7F9FFF7F5F8FFF747
:10464C0033F900F03BF900F0FDF84FF49670FBF7EE
:10465C00C1FD002204212C48FCF791FB01224FF4F0
:10466C0000412A48FCF78BFB294C012208212046EB
:10467C00FCF785FB012210212046FCF780FBFFF79D
:10468C00CFFA0C212348FDF783FEFFF741FAFFF721
:10469C007FFAFFF7F9FE4FF49670FBF79BFD12E0E3
:1046AC001D4B5A786FF300025A70FFF7BFFCFFF7EF
:1046BC0073FDFFF7F7FEFFF711FF09E0164B5B7870
:1046CC0013F0080F19D1144B5B7813F0010FE7D1DD
:1046DC00114B5B7813F0020F04D00F4B5A786FF329
:1046EC0041025A700C4B5B7813F0040FE6D00A4B66
:1046FC005A786FF382025A70E0E7074B5A786FF3DF
:10470C00C3025A70DFE700BF0014014000080140EB
:10471C00000C0140643E0020503E002000B583B0E8
:10472C00204B9A6942F001029A619B6903F00103E4
:10473C000193019B0320FCF763F8002211466FF0F4
:10474C000B00FCF76FF8002211466FF00A00FCF723
:10475C0069F8002211466FF00900FCF763F800229B
:10476C0011466FF00400FCF75DF8002211466FF063
:10477C000300FCF757F8002211466FF00100FCF71C
:10478C0051F8002211464FF0FF30FCF74BF8064A67
:10479C00536823F0E06343F00073536003B05DF89B
:1047AC0004FB00BF00100240000001407047FEE710
:1047BC00FEE7FEE7FEE770477047704708B5FBF76A
:1047CC00F7FCFCF794F808BD08B50248FCF738F97B
:1047DC0008BD00BFF801002008B50248FCF72FFE09
:1047EC0008BD00BF0841002008B50248FDF735FCA4
:1047FC0008BD00BF643E00200F4B1A6842F0010256
:10480C001A6059680D4A0A405A601A6822F084727C
:10481C0022F480321A601A6822F480221A605A68D4
:10482C0022F4FE025A604FF41F029A604FF00062AD
:10483C00034B9A60704700BF001002400000FFF865
:10484C0000ED00E000B587B019481A4B0360472310
:10485C004360002383604FF47A72C260036183610A
:10486C00FDF7F4FCA0B906A94FF4805341F8103DB4
:10487C000F48FDF76BFB80B92023009300230193B5
:10488C0069460B48FDF7BEFD60B907B05DF804FB47
:10489C004A210948FFF770FEE5E750210648FFF76B
:1048AC006BFEE9E757210448FFF766FEEDE700BF12
:1048BC00A43E0020000400400C4E000800B58BB054
:1048CC001B481C4B036047234360002383604FF459
:1048DC007A72C26003618361FDF7D1FCC8B9002311
:1048EC000893099308A91248FDF78CFDB0B9302341
:1048FC0001934FF4FA73029302230393002305935D
:10490C000C2201A90A48FDF705FD60B90BB05DF852
:10491C0004FB69210848FFF72FFEE0E770210648E9
:10492C00FFF72AFEE3E779210348FFF725FEEDE7C1
:10493C00643E0020000800400C4E00080268094B41
:10494C009A4200D0704782B003F50333DA6942F023
:10495C000202DA61DB6903F002030193019B02B0EE
:10496C00F0E700BF0004004002680E4B9A4200D0F2
:10497C00704700B583B003F50233DA6942F00402E4
:10498C00DA61DB6903F004030193019B00221146F9
:10499C001E20FBF747FF1E20FBF776FF03B05DF8E8
:1049AC0004FB00BF0008004010B5094C0022094967
:1049BC002046FEF744FB08492046FEF757FB074903
:1049CC002046FEF735FB2046FEF757FB10BD00BF17
:1049DC00E43E0020DC00002008000020CC00002079
:1049EC0002680E4B9A4200D0704700B583B003F5B5
:1049FC00DA33DA6942F40002DA61DB6903F40003AA
:104A0C000193019B002211461420FBF70BFF14208D
:104A1C00FBF73AFF03B05DF804FB00BF005C0040FD
:104A2C0008B500F22C41D0F85C04FEF73FFB08BD42
:104A3C0008B500EB4113D3F83C22D0F85C04FEF728
:104A4C0062FB08BD08B500EB4113DA6BD0F85C04CF
:104A5C00FEF78EFB08BD08B5D0F85C04FEF712FC1F
:104A6C0008BD10B504460121D0F85C04FEF7F8FB34
:104A7C00D4F85C04FEF7D5FB10BD000010B504465D
:104A8C00D0F85C04FEF7EFFBA36923B1024A13696B
:104A9C0043F00603136110BD00ED00E008B5D0F83B
:104AAC005C04FEF7E9FB08BD10B504461B48C0F8D2
:104ABC005C44C4F820021A4B0360082343600223B1
:104ACC0083600023C3608361C3610362FCF75DF9FB
:104ADC00E8B9182300221146D4F82002FCF7B6FDE1
:104AEC00582300228021D4F82002FCF7AFFD982334
:104AFC0000228121D4F82002FCF7A8FDD823002243
:104B0C000121D4F82002FCF7A1FD002010BD4FF4C8
:104B1C0097710448FFF730FDDBE700BF0841002028
:104B2C00005C00401C4E000808B5D0F82002FCF7D1
:104B3C0097F918B1022803D0022008BD002008BD47
:104B4C00012008BD10B51C4613462246D0F82002A1
:104B5C00FCF7B1F918B1022803D0022010BD0020D7
:104B6C0010BD012010BD08B5D0F82002FCF7CCF91F
:104B7C0018B1022803D0022008BD002008BD012076
:104B8C0008BD08B5D0F82002FCF70BFD18B10228BF
:104B9C0003D0022008BD002008BD012008BD08B5C7
:104BAC00D0F82002FCF72BFD18B1022803D002200C
:104BBC0008BD002008BD012008BDD0F8202211F04E
:104BCC00800F06D101F07F0102EB411191F82A020E
:104BDC00704701F07F0302EB431191F82A007047F4
:104BEC0008B5D0F82002FCF752F918B1022803D00E
:104BFC00022008BD002008BD012008BD08B5D0F872
:104C0C002002FCF7C7F918B1022803D0022008BD16
:104C1C00002008BD012008BD08B5D0F82002FCF723
:104C2C009AF918B1022803D0022008BD002008BD53
:104C3C00012008BD004870473C01002070477047B8
:104C4C0000207047002070470020704712230B8013
:104C5C0000487047F800002004230B800048704780
:104C6C000C01002008B50A4628B105490548FEF795
:104C7C007BFD034808BD02490248FEF775FDF8E7C5
:104C8C0068450020604E000810B5044C0A462146C9
:104C9C000348FEF769FD204610BD00BF68450020A3
:104CAC005C4E000808B50A4628B105490548FEF7D0
:104CBC005BFD034808BD02490248FEF755FDF8E7C5
:104CCC0068450020744E000808B50A4628B105490D
:104CDC000548FEF749FD034808BD02490248FEF7A6
:104CEC0043FDF8E768450020304E000808B50A4639
:104CFC0028B105490548FEF737FD034808BD0249B0
:104D0C000248FEF731FDF8E768450020444E0008E4
:104D1C00002103E00B4B5B58435004310A480B4B0A
:104D2C0042189A42F6D30A4A02E0002342F8043BA6
:104D3C00084B9A42F9D3FFF75FFD00F00FF8FFF72D
:104D4C0071FC70478C4E0008000000201001002000
:104D5C001001002068470020FEE7000070B5002518
:104D6C000C4E0D4CA41BA410A54209D100F01AF84E
:104D7C0000250A4E0A4CA41BA410A54205D170BDF7
:104D8C0056F8253098470135EEE756F82530984708
:104D9C000135F2E7844E0008844E0008844E00086A
:104DAC00884E0008F8B500BFF8BC08BC9E4670479A
:0C4DBC00F8B500BFF8BC08BC9E4670476C
:104DC80002030405060708090A0B0C0D0E0F101044
:104DD800010200002E2E2F5372632F6164632E632D
:104DE800000000002E2E2F5372632F6D61696E2E06
:104DF800630000000000000000000000010203043E
:104E0800060708092E2E2F5372632F74696D2E63BF
:104E1800000000002E2E2F5372632F757362645F9B
:104E2800636F6E662E630000437573746F6D204860
:104E3800494420436F6E66696700000043757374C8
:104E48006F6D2048494420496E74657266616365D8
:104E5800000000004141430053544D33325F555325
:104E6800423332494F5F4849440000003030303007
:0C4E78003030303030303141000000009C
:044E840031010008F0
:044E88000D01000810
:104E8C000100000010000000432F0008112F000843
:104E9C003D2E0008000000000D2E0008012E000819
:104EAC00B92F000800000000000000000000000006
:104EBC00F52D0008F52D0008F52D0008312E000801
:104ECC000000000009022900010100C032090400A1
:104EDC00000203000000092111010001224000071B
:104EEC00058103400001070501034000010000009B
:104EFC000921110100012240000000000A060002F5
:104F0C00000000400100C8C800A24A0400C0000014
:104F1C000000000000000000000000000000000085
:104F2C000000000000000000000000000000000075
:104F3C000000000000000000000000000000000065
:104F4C000000000000000000000000008C000020A9
:104F5C004D4C0008514C0008554C0008594C0008A9
:104F6C00654C0008954C0008714C0008B14C0008C9
:104F7C00D54C0008F94C000812010002000000405A
:104F8C0083045057000201020301000004030904CA
:0400000508004D1D85
:00000001FF
